{
  "contractName": "BlockStorage",
  "abi": [
    {
      "inputs": [
        {
          "internalType": "string",
          "name": "_verifierEncryptedKey",
          "type": "string"
        }
      ],
      "stateMutability": "nonpayable",
      "type": "constructor"
    },
    {
      "anonymous": false,
      "inputs": [
        {
          "indexed": false,
          "internalType": "string",
          "name": "userName",
          "type": "string"
        },
        {
          "indexed": false,
          "internalType": "uint256",
          "name": "changeCount",
          "type": "uint256"
        }
      ],
      "name": "VerificationChangeCountReduced",
      "type": "event"
    },
    {
      "anonymous": false,
      "inputs": [
        {
          "indexed": false,
          "internalType": "string",
          "name": "newEncryptionKey",
          "type": "string"
        },
        {
          "indexed": false,
          "internalType": "string",
          "name": "oldEncryptionKey",
          "type": "string"
        },
        {
          "indexed": false,
          "internalType": "string",
          "name": "userName",
          "type": "string"
        }
      ],
      "name": "VerificationChangeEncryptionKey",
      "type": "event"
    },
    {
      "anonymous": false,
      "inputs": [
        {
          "indexed": false,
          "internalType": "string",
          "name": "userName",
          "type": "string"
        }
      ],
      "name": "VerificationDataDeleted",
      "type": "event"
    },
    {
      "anonymous": false,
      "inputs": [
        {
          "indexed": false,
          "internalType": "string",
          "name": "userName",
          "type": "string"
        },
        {
          "indexed": false,
          "internalType": "string",
          "name": "mutableDataHash",
          "type": "string"
        },
        {
          "indexed": false,
          "internalType": "string",
          "name": "immutableDataHash",
          "type": "string"
        },
        {
          "indexed": false,
          "internalType": "uint256",
          "name": "updatedAt",
          "type": "uint256"
        },
        {
          "indexed": false,
          "internalType": "uint256",
          "name": "changeCount",
          "type": "uint256"
        }
      ],
      "name": "VerificationDataStored",
      "type": "event"
    },
    {
      "anonymous": false,
      "inputs": [
        {
          "indexed": false,
          "internalType": "string",
          "name": "message",
          "type": "string"
        }
      ],
      "name": "VerificationErrorMessage",
      "type": "event"
    },
    {
      "inputs": [
        {
          "internalType": "string",
          "name": "_userName",
          "type": "string"
        },
        {
          "internalType": "string",
          "name": "_mutableDataHash",
          "type": "string"
        },
        {
          "internalType": "string",
          "name": "_immutableDataHash",
          "type": "string"
        },
        {
          "internalType": "string",
          "name": "_userEncryptedKey",
          "type": "string"
        },
        {
          "internalType": "uint256",
          "name": "_changeCount",
          "type": "uint256"
        }
      ],
      "name": "storeVerificationData",
      "outputs": [
        {
          "internalType": "bool",
          "name": "",
          "type": "bool"
        }
      ],
      "stateMutability": "nonpayable",
      "type": "function"
    },
    {
      "inputs": [
        {
          "internalType": "string",
          "name": "_userName",
          "type": "string"
        },
        {
          "internalType": "string",
          "name": "_mutableDataHash",
          "type": "string"
        },
        {
          "internalType": "string",
          "name": "_immutableDataHash",
          "type": "string"
        },
        {
          "internalType": "string",
          "name": "_userEncryptedKey",
          "type": "string"
        }
      ],
      "name": "storeVerificationData",
      "outputs": [
        {
          "internalType": "bool",
          "name": "",
          "type": "bool"
        }
      ],
      "stateMutability": "nonpayable",
      "type": "function"
    },
    {
      "inputs": [
        {
          "internalType": "string",
          "name": "_userEncryptedKey",
          "type": "string"
        },
        {
          "internalType": "string",
          "name": "_userName",
          "type": "string"
        },
        {
          "internalType": "string",
          "name": "_mutableDataHash",
          "type": "string"
        },
        {
          "internalType": "string",
          "name": "_immutableDataHash",
          "type": "string"
        }
      ],
      "name": "verifyUserIdentity",
      "outputs": [
        {
          "internalType": "bool",
          "name": "",
          "type": "bool"
        }
      ],
      "stateMutability": "view",
      "type": "function"
    },
    {
      "inputs": [
        {
          "internalType": "string",
          "name": "_userEncryptedKey",
          "type": "string"
        },
        {
          "internalType": "string",
          "name": "_userName",
          "type": "string"
        }
      ],
      "name": "deleteVerificationData",
      "outputs": [
        {
          "internalType": "bool",
          "name": "",
          "type": "bool"
        }
      ],
      "stateMutability": "nonpayable",
      "type": "function"
    },
    {
      "inputs": [
        {
          "internalType": "string",
          "name": "_userEncryptedKey",
          "type": "string"
        },
        {
          "internalType": "string",
          "name": "_newUserEncryptedKey",
          "type": "string"
        },
        {
          "internalType": "string",
          "name": "_userName",
          "type": "string"
        }
      ],
      "name": "changeUserEncryptionKey",
      "outputs": [
        {
          "internalType": "bool",
          "name": "",
          "type": "bool"
        }
      ],
      "stateMutability": "nonpayable",
      "type": "function"
    },
    {
      "inputs": [
        {
          "internalType": "string",
          "name": "_userEncryptedKey",
          "type": "string"
        },
        {
          "internalType": "string",
          "name": "_userName",
          "type": "string"
        },
        {
          "internalType": "uint256",
          "name": "_reduceCountTo",
          "type": "uint256"
        }
      ],
      "name": "reduceChangeCount",
      "outputs": [
        {
          "internalType": "bool",
          "name": "",
          "type": "bool"
        }
      ],
      "stateMutability": "nonpayable",
      "type": "function"
    }
  ],
  "bytecode": "0x608060405234801562000010575f80fd5b5060405162002eb138038062002eb1833981810160405281019062000036919062000213565b335f806101000a81548173ffffffffffffffffffffffffffffffffffffffff021916908373ffffffffffffffffffffffffffffffffffffffff160217905550806001908162000086919062000499565b50506200057d565b5f604051905090565b5f80fd5b5f80fd5b5f80fd5b5f80fd5b5f601f19601f8301169050919050565b7f4e487b71000000000000000000000000000000000000000000000000000000005f52604160045260245ffd5b620000ef82620000a7565b810181811067ffffffffffffffff82111715620001115762000110620000b7565b5b80604052505050565b5f620001256200008e565b9050620001338282620000e4565b919050565b5f67ffffffffffffffff821115620001555762000154620000b7565b5b6200016082620000a7565b9050602081019050919050565b5f5b838110156200018c5780820151818401526020810190506200016f565b5f8484015250505050565b5f620001ad620001a78462000138565b6200011a565b905082815260208101848484011115620001cc57620001cb620000a3565b5b620001d98482856200016d565b509392505050565b5f82601f830112620001f857620001f76200009f565b5b81516200020a84826020860162000197565b91505092915050565b5f602082840312156200022b576200022a62000097565b5b5f82015167ffffffffffffffff8111156200024b576200024a6200009b565b5b6200025984828501620001e1565b91505092915050565b5f81519050919050565b7f4e487b71000000000000000000000000000000000000000000000000000000005f52602260045260245ffd5b5f6002820490506001821680620002b157607f821691505b602082108103620002c757620002c66200026c565b5b50919050565b5f819050815f5260205f209050919050565b5f6020601f8301049050919050565b5f82821b905092915050565b5f600883026200032b7fffffffffffffffffffffffffffffffffffffffffffffffffffffffffffffffff82620002ee565b620003378683620002ee565b95508019841693508086168417925050509392505050565b5f819050919050565b5f819050919050565b5f620003816200037b62000375846200034f565b62000358565b6200034f565b9050919050565b5f819050919050565b6200039c8362000361565b620003b4620003ab8262000388565b848454620002fa565b825550505050565b5f90565b620003ca620003bc565b620003d781848462000391565b505050565b5b81811015620003fe57620003f25f82620003c0565b600181019050620003dd565b5050565b601f8211156200044d576200041781620002cd565b6200042284620002df565b8101602085101562000432578190505b6200044a6200044185620002df565b830182620003dc565b50505b505050565b5f82821c905092915050565b5f6200046f5f198460080262000452565b1980831691505092915050565b5f6200048983836200045e565b9150826002028217905092915050565b620004a48262000262565b67ffffffffffffffff811115620004c057620004bf620000b7565b5b620004cc825462000299565b620004d982828562000402565b5f60209050601f8311600181146200050f575f8415620004fa578287015190505b6200050685826200047c565b86555062000575565b601f1984166200051f86620002cd565b5f5b82811015620005485784890151825560018201915060208501945060208101905062000521565b8683101562000568578489015162000564601f8916826200045e565b8355505b6001600288020188555050505b505050505050565b612926806200058b5f395ff3fe608060405234801561000f575f80fd5b5060043610610060575f3560e01c80634817fde414610064578063575abad9146100945780636a30e282146100c457806399cc9e75146100f4578063b732a6b114610124578063e195374e14610154575b5f80fd5b61007e60048036038101906100799190611b8a565b610184565b60405161008b9190611c78565b60405180910390f35b6100ae60048036038101906100a99190611c91565b6104c2565b6040516100bb9190611c78565b60405180910390f35b6100de60048036038101906100d99190611d68565b61099a565b6040516100eb9190611c78565b60405180910390f35b61010e60048036038101906101099190611e4f565b610dc0565b60405161011b9190611c78565b60405180910390f35b61013e60048036038101906101399190611ec5565b61119a565b60405161014b9190611c78565b60405180910390f35b61016e60048036038101906101699190611b8a565b6115c0565b60405161017b9190611c78565b60405180910390f35b5f808560018660405160200161019c939291906120a8565b60405160208183030381529060405290505f6002826040516101be91906120d8565b90815260200160405180910390206040518060a00160405290815f820180546101e690611fe6565b80601f016020809104026020016040519081016040528092919081815260200182805461021290611fe6565b801561025d5780601f106102345761010080835404028352916020019161025d565b820191905f5260205f20905b81548152906001019060200180831161024057829003601f168201915b5050505050815260200160018201805461027690611fe6565b80601f01602080910402602001604051908101604052809291908181526020018280546102a290611fe6565b80156102ed5780601f106102c4576101008083540402835291602001916102ed565b820191905f5260205f20905b8154815290600101906020018083116102d057829003601f168201915b5050505050815260200160028201805461030690611fe6565b80601f016020809104026020016040519081016040528092919081815260200182805461033290611fe6565b801561037d5780601f106103545761010080835404028352916020019161037d565b820191905f5260205f20905b81548152906001019060200180831161036057829003601f168201915b50505050508152602001600382015481526020016004820154815250509050856040516020016103ad91906120d8565b60405160208183030381529060405280519060200120815f01516040516020016103d791906120d8565b6040516020818303038152906040528051906020012014801561044957508460405160200161040691906120d8565b60405160208183030381529060405280519060200120816020015160405160200161043191906120d8565b60405160208183030381529060405280519060200120145b80156104a457508360405160200161046191906120d8565b60405160208183030381529060405280519060200120816040015160405160200161048c91906120d8565b60405160208183030381529060405280519060200120145b156104b4576001925050506104ba565b5f925050505b949350505050565b5f805f9054906101000a900473ffffffffffffffffffffffffffffffffffffffff1673ffffffffffffffffffffffffffffffffffffffff163373ffffffffffffffffffffffffffffffffffffffff1614610551576040517f08c379a00000000000000000000000000000000000000000000000000000000081526004016105489061216e565b60405180910390fd5b5f84600184604051602001610568939291906120a8565b60405160208183030381529060405290505f60028260405161058a91906120d8565b90815260200160405180910390206040518060a00160405290815f820180546105b290611fe6565b80601f01602080910402602001604051908101604052809291908181526020018280546105de90611fe6565b80156106295780601f1061060057610100808354040283529160200191610629565b820191905f5260205f20905b81548152906001019060200180831161060c57829003601f168201915b5050505050815260200160018201805461064290611fe6565b80601f016020809104026020016040519081016040528092919081815260200182805461066e90611fe6565b80156106b95780601f10610690576101008083540402835291602001916106b9565b820191905f5260205f20905b81548152906001019060200180831161069c57829003601f168201915b505050505081526020016002820180546106d290611fe6565b80601f01602080910402602001604051908101604052809291908181526020018280546106fe90611fe6565b80156107495780601f1061072057610100808354040283529160200191610749565b820191905f5260205f20905b81548152906001019060200180831161072c57829003601f168201915b5050505050815260200160038201548152602001600482015481525050905060058160800151118061078c57504262015180826060015161078a91906121b9565b115b156107d0577fe57e6bef6fe0f404b53e3a59e50f621ce004cb7ec8037b6b2bc484478f8715766040516107be90612282565b60405180910390a15f92505050610993565b836040516020016107e191906120d8565b60405160208183030381529060405280519060200120815f015160405160200161080b91906120d8565b604051602081830303815290604052805190602001200361098d575f61083b878684602001518560400151610184565b905080610882577fe57e6bef6fe0f404b53e3a59e50f621ce004cb7ec8037b6b2bc484478f87157660405161086f906122ea565b60405180910390a15f9350505050610993565b5f61088d8887610dc0565b9050806108d5577fe57e6bef6fe0f404b53e3a59e50f621ce004cb7ec8037b6b2bc484478f8715766040516108c190612378565b60405180910390a15f945050505050610993565b5f6108fb87856020015186604001518b600189608001516108f691906121b9565b61099a565b905080610944577fe57e6bef6fe0f404b53e3a59e50f621ce004cb7ec8037b6b2bc484478f87157660405161092f90612406565b60405180910390a15f95505050505050610993565b7fd4b7b9fbf8df0bd4765bef41f13b8132bf4752f2c3c44e00cd2a300307c9a414888a896040516109779392919061245c565b60405180910390a1600195505050505050610993565b5f925050505b9392505050565b5f805f9054906101000a900473ffffffffffffffffffffffffffffffffffffffff1673ffffffffffffffffffffffffffffffffffffffff163373ffffffffffffffffffffffffffffffffffffffff1614610a29576040517f08c379a0000000000000000000000000000000000000000000000000000000008152600401610a209061216e565b60405180910390fd5b5f83600188604051602001610a40939291906120a8565b60405160208183030381529060405290505f600282604051610a6291906120d8565b90815260200160405180910390206040518060a00160405290815f82018054610a8a90611fe6565b80601f0160208091040260200160405190810160405280929190818152602001828054610ab690611fe6565b8015610b015780601f10610ad857610100808354040283529160200191610b01565b820191905f5260205f20905b815481529060010190602001808311610ae457829003601f168201915b50505050508152602001600182018054610b1a90611fe6565b80601f0160208091040260200160405190810160405280929190818152602001828054610b4690611fe6565b8015610b915780601f10610b6857610100808354040283529160200191610b91565b820191905f5260205f20905b815481529060010190602001808311610b7457829003601f168201915b50505050508152602001600282018054610baa90611fe6565b80601f0160208091040260200160405190810160405280929190818152602001828054610bd690611fe6565b8015610c215780601f10610bf857610100808354040283529160200191610c21565b820191905f5260205f20905b815481529060010190602001808311610c0457829003601f168201915b5050505050815260200160038201548152602001600482015481525050905087604051602001610c5191906120d8565b60405160208183030381529060405280519060200120815f0151604051602001610c7b91906120d8565b6040516020818303038152906040528051906020012003610cd5577fe57e6bef6fe0f404b53e3a59e50f621ce004cb7ec8037b6b2bc484478f871576604051610cc390612516565b60405180910390a15f92505050610db7565b6040518060a0016040528089815260200188815260200187815260200142815260200185815250600283604051610d0c91906120d8565b90815260200160405180910390205f820151815f019081610d2d91906126bf565b506020820151816001019081610d4391906126bf565b506040820151816002019081610d5991906126bf565b5060608201518160030155608082015181600401559050507f8ce402eb42579b2b0484e7a9d901b974b3d8f6611a8ca625dd52d0fcb57fbc538888884288604051610da895949392919061279d565b60405180910390a16001925050505b95945050505050565b5f805f9054906101000a900473ffffffffffffffffffffffffffffffffffffffff1673ffffffffffffffffffffffffffffffffffffffff163373ffffffffffffffffffffffffffffffffffffffff1614610e4f576040517f08c379a0000000000000000000000000000000000000000000000000000000008152600401610e469061216e565b60405180910390fd5b5f83600184604051602001610e66939291906120a8565b60405160208183030381529060405290505f600282604051610e8891906120d8565b90815260200160405180910390206040518060a00160405290815f82018054610eb090611fe6565b80601f0160208091040260200160405190810160405280929190818152602001828054610edc90611fe6565b8015610f275780601f10610efe57610100808354040283529160200191610f27565b820191905f5260205f20905b815481529060010190602001808311610f0a57829003601f168201915b50505050508152602001600182018054610f4090611fe6565b80601f0160208091040260200160405190810160405280929190818152602001828054610f6c90611fe6565b8015610fb75780601f10610f8e57610100808354040283529160200191610fb7565b820191905f5260205f20905b815481529060010190602001808311610f9a57829003601f168201915b50505050508152602001600282018054610fd090611fe6565b80601f0160208091040260200160405190810160405280929190818152602001828054610ffc90611fe6565b80156110475780601f1061101e57610100808354040283529160200191611047565b820191905f5260205f20905b81548152906001019060200180831161102a57829003601f168201915b505050505081526020016003820154815260200160048201548152505090508360405160200161107791906120d8565b60405160208183030381529060405280519060200120815f01516040516020016110a191906120d8565b6040516020818303038152906040528051906020012003611159576002826040516110cc91906120d8565b90815260200160405180910390205f8082015f6110e991906119e5565b600182015f6110f891906119e5565b600282015f61110791906119e5565b600382015f9055600482015f905550507f739d1bb5d56680594690f331de14f86682e48db46fbc25304494a8df55d661fa846040516111469190612803565b60405180910390a1600192505050611194565b7fe57e6bef6fe0f404b53e3a59e50f621ce004cb7ec8037b6b2bc484478f871576604051611186906122ea565b60405180910390a15f925050505b92915050565b5f805f9054906101000a900473ffffffffffffffffffffffffffffffffffffffff1673ffffffffffffffffffffffffffffffffffffffff163373ffffffffffffffffffffffffffffffffffffffff1614611229576040517f08c379a00000000000000000000000000000000000000000000000000000000081526004016112209061216e565b60405180910390fd5b5f84600185604051602001611240939291906120a8565b60405160208183030381529060405290505f60028260405161126291906120d8565b90815260200160405180910390206040518060a00160405290815f8201805461128a90611fe6565b80601f01602080910402602001604051908101604052809291908181526020018280546112b690611fe6565b80156113015780601f106112d857610100808354040283529160200191611301565b820191905f5260205f20905b8154815290600101906020018083116112e457829003601f168201915b5050505050815260200160018201805461131a90611fe6565b80601f016020809104026020016040519081016040528092919081815260200182805461134690611fe6565b80156113915780601f1061136857610100808354040283529160200191611391565b820191905f5260205f20905b81548152906001019060200180831161137457829003601f168201915b505050505081526020016002820180546113aa90611fe6565b80601f01602080910402602001604051908101604052809291908181526020018280546113d690611fe6565b80156114215780601f106113f857610100808354040283529160200191611421565b820191905f5260205f20905b81548152906001019060200180831161140457829003601f168201915b505050505081526020016003820154815260200160048201548152505090508460405160200161145191906120d8565b60405160208183030381529060405280519060200120815f015160405160200161147b91906120d8565b604051602081830303815290604052805190602001200361157e576040518060a001604052808681526020018260200151815260200182604001518152602001428152602001858152506002836040516114d591906120d8565b90815260200160405180910390205f820151815f0190816114f691906126bf565b50602082015181600101908161150c91906126bf565b50604082015181600201908161152291906126bf565b5060608201518160030155608082015181600401559050507f4c86ed80d7bd479c7b8ca4f0bc4d8a20f7da576128721a3110eaa8d13b327aa8858560405161156b929190612823565b60405180910390a16001925050506115b9565b7fe57e6bef6fe0f404b53e3a59e50f621ce004cb7ec8037b6b2bc484478f8715766040516115ab906122ea565b60405180910390a15f925050505b9392505050565b5f805f9054906101000a900473ffffffffffffffffffffffffffffffffffffffff1673ffffffffffffffffffffffffffffffffffffffff163373ffffffffffffffffffffffffffffffffffffffff161461164f576040517f08c379a00000000000000000000000000000000000000000000000000000000081526004016116469061216e565b60405180910390fd5b5f82600187604051602001611666939291906120a8565b60405160208183030381529060405290505f60028260405161168891906120d8565b90815260200160405180910390206040518060a00160405290815f820180546116b090611fe6565b80601f01602080910402602001604051908101604052809291908181526020018280546116dc90611fe6565b80156117275780601f106116fe57610100808354040283529160200191611727565b820191905f5260205f20905b81548152906001019060200180831161170a57829003601f168201915b5050505050815260200160018201805461174090611fe6565b80601f016020809104026020016040519081016040528092919081815260200182805461176c90611fe6565b80156117b75780601f1061178e576101008083540402835291602001916117b7565b820191905f5260205f20905b81548152906001019060200180831161179a57829003601f168201915b505050505081526020016002820180546117d090611fe6565b80601f01602080910402602001604051908101604052809291908181526020018280546117fc90611fe6565b80156118475780601f1061181e57610100808354040283529160200191611847565b820191905f5260205f20905b81548152906001019060200180831161182a57829003601f168201915b505050505081526020016003820154815260200160048201548152505090508660405160200161187791906120d8565b60405160208183030381529060405280519060200120815f01516040516020016118a191906120d8565b60405160208183030381529060405280519060200120036118fb577fe57e6bef6fe0f404b53e3a59e50f621ce004cb7ec8037b6b2bc484478f8715766040516118e990612516565b60405180910390a15f925050506119dd565b6040518060a001604052808881526020018781526020018681526020014281526020015f81525060028360405161193291906120d8565b90815260200160405180910390205f820151815f01908161195391906126bf565b50602082015181600101908161196991906126bf565b50604082015181600201908161197f91906126bf565b5060608201518160030155608082015181600401559050507f8ce402eb42579b2b0484e7a9d901b974b3d8f6611a8ca625dd52d0fcb57fbc53878787425f6040516119ce95949392919061288a565b60405180910390a16001925050505b949350505050565b5080546119f190611fe6565b5f825580601f10611a025750611a1f565b601f0160209004905f5260205f2090810190611a1e9190611a22565b5b50565b5b80821115611a39575f815f905550600101611a23565b5090565b5f604051905090565b5f80fd5b5f80fd5b5f80fd5b5f80fd5b5f601f19601f8301169050919050565b7f4e487b71000000000000000000000000000000000000000000000000000000005f52604160045260245ffd5b611a9c82611a56565b810181811067ffffffffffffffff82111715611abb57611aba611a66565b5b80604052505050565b5f611acd611a3d565b9050611ad98282611a93565b919050565b5f67ffffffffffffffff821115611af857611af7611a66565b5b611b0182611a56565b9050602081019050919050565b828183375f83830152505050565b5f611b2e611b2984611ade565b611ac4565b905082815260208101848484011115611b4a57611b49611a52565b5b611b55848285611b0e565b509392505050565b5f82601f830112611b7157611b70611a4e565b5b8135611b81848260208601611b1c565b91505092915050565b5f805f8060808587031215611ba257611ba1611a46565b5b5f85013567ffffffffffffffff811115611bbf57611bbe611a4a565b5b611bcb87828801611b5d565b945050602085013567ffffffffffffffff811115611bec57611beb611a4a565b5b611bf887828801611b5d565b935050604085013567ffffffffffffffff811115611c1957611c18611a4a565b5b611c2587828801611b5d565b925050606085013567ffffffffffffffff811115611c4657611c45611a4a565b5b611c5287828801611b5d565b91505092959194509250565b5f8115159050919050565b611c7281611c5e565b82525050565b5f602082019050611c8b5f830184611c69565b92915050565b5f805f60608486031215611ca857611ca7611a46565b5b5f84013567ffffffffffffffff811115611cc557611cc4611a4a565b5b611cd186828701611b5d565b935050602084013567ffffffffffffffff811115611cf257611cf1611a4a565b5b611cfe86828701611b5d565b925050604084013567ffffffffffffffff811115611d1f57611d1e611a4a565b5b611d2b86828701611b5d565b9150509250925092565b5f819050919050565b611d4781611d35565b8114611d51575f80fd5b50565b5f81359050611d6281611d3e565b92915050565b5f805f805f60a08688031215611d8157611d80611a46565b5b5f86013567ffffffffffffffff811115611d9e57611d9d611a4a565b5b611daa88828901611b5d565b955050602086013567ffffffffffffffff811115611dcb57611dca611a4a565b5b611dd788828901611b5d565b945050604086013567ffffffffffffffff811115611df857611df7611a4a565b5b611e0488828901611b5d565b935050606086013567ffffffffffffffff811115611e2557611e24611a4a565b5b611e3188828901611b5d565b9250506080611e4288828901611d54565b9150509295509295909350565b5f8060408385031215611e6557611e64611a46565b5b5f83013567ffffffffffffffff811115611e8257611e81611a4a565b5b611e8e85828601611b5d565b925050602083013567ffffffffffffffff811115611eaf57611eae611a4a565b5b611ebb85828601611b5d565b9150509250929050565b5f805f60608486031215611edc57611edb611a46565b5b5f84013567ffffffffffffffff811115611ef957611ef8611a4a565b5b611f0586828701611b5d565b935050602084013567ffffffffffffffff811115611f2657611f25611a4a565b5b611f3286828701611b5d565b9250506040611f4386828701611d54565b9150509250925092565b5f81519050919050565b5f81905092915050565b5f5b83811015611f7e578082015181840152602081019050611f63565b5f8484015250505050565b5f611f9382611f4d565b611f9d8185611f57565b9350611fad818560208601611f61565b80840191505092915050565b7f4e487b71000000000000000000000000000000000000000000000000000000005f52602260045260245ffd5b5f6002820490506001821680611ffd57607f821691505b6020821081036120105761200f611fb9565b5b50919050565b5f819050815f5260205f209050919050565b5f815461203481611fe6565b61203e8186611f57565b9450600182165f8114612058576001811461206d5761209f565b60ff198316865281151582028601935061209f565b61207685612016565b5f5b8381101561209757815481890152600182019150602081019050612078565b838801955050505b50505092915050565b5f6120b38286611f89565b91506120bf8285612028565b91506120cb8284611f89565b9150819050949350505050565b5f6120e38284611f89565b915081905092915050565b5f82825260208201905092915050565b7f4f6e6c79207665726966696572206861732074686520616363657373207468655f8201527f207265717569726564206f7065726174696f6e00000000000000000000000000602082015250565b5f6121586033836120ee565b9150612163826120fe565b604082019050919050565b5f6020820190508181035f8301526121858161214c565b9050919050565b7f4e487b71000000000000000000000000000000000000000000000000000000005f52601160045260245ffd5b5f6121c382611d35565b91506121ce83611d35565b92508282019050808211156121e6576121e561218c565b5b92915050565b7f55736572206861732075706461746564207468652064617461206d6f726520745f8201527f68616e20352074696d6573206f7220746865206461746120697320757064617460208201527f65642077697468696e2031206461790000000000000000000000000000000000604082015250565b5f61226c604f836120ee565b9150612277826121ec565b606082019050919050565b5f6020820190508181035f83015261229981612260565b9050919050565b7f5573657220646f6573206e6f74206578697374000000000000000000000000005f82015250565b5f6122d46013836120ee565b91506122df826122a0565b602082019050919050565b5f6020820190508181035f830152612301816122c8565b9050919050565b7f557365722064617461206973206e6f742064656c6574656420737563636573735f8201527f66756c6c79000000000000000000000000000000000000000000000000000000602082015250565b5f6123626025836120ee565b915061236d82612308565b604082019050919050565b5f6020820190508181035f83015261238f81612356565b9050919050565b7f557365722064617461206973206e6f742073746f7265642073756363657373665f8201527f756c6c7900000000000000000000000000000000000000000000000000000000602082015250565b5f6123f06024836120ee565b91506123fb82612396565b604082019050919050565b5f6020820190508181035f83015261241d816123e4565b9050919050565b5f61242e82611f4d565b61243881856120ee565b9350612448818560208601611f61565b61245181611a56565b840191505092915050565b5f6060820190508181035f8301526124748186612424565b905081810360208301526124888185612424565b9050818103604083015261249c8184612424565b9050949350505050565b7f5573657220616c7265616479206578697374732c20706c65617365206368616e5f8201527f67652074686520757365724e616d650000000000000000000000000000000000602082015250565b5f612500602f836120ee565b915061250b826124a6565b604082019050919050565b5f6020820190508181035f83015261252d816124f4565b9050919050565b5f6020601f8301049050919050565b5f82821b905092915050565b5f6008830261257e7fffffffffffffffffffffffffffffffffffffffffffffffffffffffffffffffff82612543565b6125888683612543565b95508019841693508086168417925050509392505050565b5f819050919050565b5f6125c36125be6125b984611d35565b6125a0565b611d35565b9050919050565b5f819050919050565b6125dc836125a9565b6125f06125e8826125ca565b84845461254f565b825550505050565b5f90565b6126046125f8565b61260f8184846125d3565b505050565b5b81811015612632576126275f826125fc565b600181019050612615565b5050565b601f8211156126775761264881612016565b61265184612534565b81016020851015612660578190505b61267461266c85612534565b830182612614565b50505b505050565b5f82821c905092915050565b5f6126975f198460080261267c565b1980831691505092915050565b5f6126af8383612688565b9150826002028217905092915050565b6126c882611f4d565b67ffffffffffffffff8111156126e1576126e0611a66565b5b6126eb8254611fe6565b6126f6828285612636565b5f60209050601f831160018114612727575f8415612715578287015190505b61271f85826126a4565b865550612786565b601f19841661273586612016565b5f5b8281101561275c57848901518255600182019150602085019450602081019050612737565b868310156127795784890151612775601f891682612688565b8355505b6001600288020188555050505b505050505050565b61279781611d35565b82525050565b5f60a0820190508181035f8301526127b58188612424565b905081810360208301526127c98187612424565b905081810360408301526127dd8186612424565b90506127ec606083018561278e565b6127f9608083018461278e565b9695505050505050565b5f6020820190508181035f83015261281b8184612424565b905092915050565b5f6040820190508181035f83015261283b8185612424565b905061284a602083018461278e565b9392505050565b5f819050919050565b5f61287461286f61286a84612851565b6125a0565b611d35565b9050919050565b6128848161285a565b82525050565b5f60a0820190508181035f8301526128a28188612424565b905081810360208301526128b68187612424565b905081810360408301526128ca8186612424565b90506128d9606083018561278e565b6128e6608083018461287b565b969550505050505056fea2646970667358221220a50df32b610b4f75538cbe8efc4da10bc090ed4a414e430ba8b712174729106f64736f6c63430008140033",
  "immutableReferences": {},
  "source": "// SPDX-License-Identifier: MIT\r\n\r\n/**\r\n * @title This contract is to store the hashed data in the form of key value pair\r\n * @author Akash Gupta\r\n * @notice This contract helps in verifying the user based on the encrypted key and hashed data\r\n */\r\n\r\npragma solidity >=0.4.22 <=0.8.20;\r\n\r\ncontract BlockStorage {\r\n    struct StoredVerificationData {\r\n        string userName; // User name of the user\r\n        string mutableDataHash; // Chameleon hash of the mutable data\r\n        string immutableDataHash; // Hash of the immutable data\r\n        uint256 updatedAt; // Time at which the data is updated\r\n        uint256 changeCount; // Number of times the data is modified\r\n    }\r\n\r\n    address verifierAddress; // Address of the verifier\r\n    string verifierEncryptedKey; // Encrypted key of the verifier\r\n\r\n    // Mapping of the user name and the stored verification data\r\n    mapping(string => StoredVerificationData) storedVerificationData;\r\n\r\n    // Multiple events to emit the function status\r\n    event VerificationErrorMessage(string message);\r\n    event VerificationDataStored(\r\n        string userName,\r\n        string mutableDataHash,\r\n        string immutableDataHash,\r\n        uint256 updatedAt,\r\n        uint256 changeCount\r\n    );\r\n    event VerificationDataDeleted(string userName);\r\n    event VerificationChangeEncryptionKey(\r\n        string newEncryptionKey,\r\n        string oldEncryptionKey,\r\n        string userName\r\n    );\r\n    event VerificationChangeCountReduced(string userName, uint256 changeCount);\r\n\r\n    /**\r\n     * @dev This function intializes the verifier address\r\n     * @param _verifierEncryptedKey Encrypted key of the verifier\r\n     */\r\n    constructor(string memory _verifierEncryptedKey) {\r\n        verifierAddress = msg.sender;\r\n        verifierEncryptedKey = _verifierEncryptedKey;\r\n    }\r\n\r\n    // Modifier to check if the sender is the verifier\r\n    modifier onlyVerifier() {\r\n        require(\r\n            msg.sender == verifierAddress,\r\n            \"Only verifier has the access the required operation\"\r\n        );\r\n        _;\r\n    }\r\n\r\n    /**\r\n     * @dev This function is used to store the verification data of the user overloaded with _changeCount\r\n     * @param _userName User name of the user\r\n     * @param _mutableDataHash Chameleon hash of the mutable data\r\n     * @param _immutableDataHash Hash of the immutable data\r\n     * @param _userEncryptedKey Encrypted key of the user\r\n     * @param _changeCount Number of times the data is modified\r\n     * @return bool Returns true if the data is stored successfully\r\n     */\r\n    function storeVerificationData(\r\n        string memory _userName,\r\n        string memory _mutableDataHash,\r\n        string memory _immutableDataHash,\r\n        string memory _userEncryptedKey,\r\n        uint256 _changeCount\r\n    ) public onlyVerifier returns (bool) {\r\n        string memory _encryptedKey = string(\r\n            abi.encodePacked(_userEncryptedKey, verifierEncryptedKey, _userName)\r\n        );\r\n\r\n        StoredVerificationData\r\n            memory _storedVerificationData = storedVerificationData[\r\n                _encryptedKey\r\n            ];\r\n        if (\r\n            keccak256(abi.encodePacked(_storedVerificationData.userName)) ==\r\n            keccak256(abi.encodePacked(_userName))\r\n        ) {\r\n            emit VerificationErrorMessage(\r\n                \"User already exists, please change the userName\"\r\n            );\r\n            return false;\r\n        }\r\n\r\n        storedVerificationData[_encryptedKey] = StoredVerificationData(\r\n            _userName,\r\n            _mutableDataHash,\r\n            _immutableDataHash,\r\n            block.timestamp,\r\n            _changeCount\r\n        );\r\n\r\n        emit VerificationDataStored(\r\n            _userName,\r\n            _mutableDataHash,\r\n            _immutableDataHash,\r\n            block.timestamp,\r\n            _changeCount\r\n        );\r\n        return true;\r\n    }\r\n\r\n    /**\r\n     * @dev This function is used to store the verification data of the user\r\n     * @param _userName User name of the user\r\n     * @param _mutableDataHash Chameleon hash of the mutable data\r\n     * @param _immutableDataHash Hash of the immutable data\r\n     * @param _userEncryptedKey Encrypted key of the user\r\n     * @return bool Returns true if the data is stored successfully\r\n     */\r\n    function storeVerificationData(\r\n        string memory _userName,\r\n        string memory _mutableDataHash,\r\n        string memory _immutableDataHash,\r\n        string memory _userEncryptedKey\r\n    ) public onlyVerifier returns (bool) {\r\n        string memory _encryptedKey = string(\r\n            abi.encodePacked(_userEncryptedKey, verifierEncryptedKey, _userName)\r\n        );\r\n\r\n        StoredVerificationData\r\n            memory _storedVerificationData = storedVerificationData[\r\n                _encryptedKey\r\n            ];\r\n        if (\r\n            keccak256(abi.encodePacked(_storedVerificationData.userName)) ==\r\n            keccak256(abi.encodePacked(_userName))\r\n        ) {\r\n            emit VerificationErrorMessage(\r\n                \"User already exists, please change the userName\"\r\n            );\r\n            return false;\r\n        }\r\n\r\n        storedVerificationData[_encryptedKey] = StoredVerificationData(\r\n            _userName,\r\n            _mutableDataHash,\r\n            _immutableDataHash,\r\n            block.timestamp,\r\n            0\r\n        );\r\n\r\n        emit VerificationDataStored(\r\n            _userName,\r\n            _mutableDataHash,\r\n            _immutableDataHash,\r\n            block.timestamp,\r\n            0\r\n        );\r\n        return true;\r\n    }\r\n\r\n    /**\r\n     * @dev This function is used to verify the user\r\n     * @param _userEncryptedKey Encrypted key of the user\r\n     * @param _userName User name of the user\r\n     * @param _mutableDataHash Chameleon hash of the mutable data\r\n     * @param _immutableDataHash Hash of the immutable data\r\n     * @return bool Returns true if the user is verified successfully\r\n     */\r\n    function verifyUserIdentity(\r\n        string memory _userEncryptedKey,\r\n        string memory _userName,\r\n        string memory _mutableDataHash,\r\n        string memory _immutableDataHash\r\n    ) public view returns (bool) {\r\n        string memory _encryptedKey = string(\r\n            abi.encodePacked(_userEncryptedKey, verifierEncryptedKey, _userName)\r\n        );\r\n        StoredVerificationData\r\n            memory _storedVerificationData = storedVerificationData[\r\n                _encryptedKey\r\n            ];\r\n\r\n        if (\r\n            keccak256(abi.encodePacked(_storedVerificationData.userName)) ==\r\n            keccak256(abi.encodePacked(_userName)) &&\r\n            keccak256(\r\n                abi.encodePacked(_storedVerificationData.mutableDataHash)\r\n            ) ==\r\n            keccak256(abi.encodePacked(_mutableDataHash)) &&\r\n            keccak256(\r\n                abi.encodePacked(_storedVerificationData.immutableDataHash)\r\n            ) ==\r\n            keccak256(abi.encodePacked(_immutableDataHash))\r\n        ) return true;\r\n\r\n        return false;\r\n    }\r\n\r\n    /**\r\n     * @dev This function is used to delete the verification data of the user\r\n     * @param _userEncryptedKey Encrypted key of the user\r\n     * @param _userName User name of the user\r\n     * @return bool Returns true if the data is deleted successfully\r\n     */\r\n    function deleteVerificationData(\r\n        string memory _userEncryptedKey,\r\n        string memory _userName\r\n    ) public onlyVerifier returns (bool) {\r\n        string memory _encryptedKey = string(\r\n            abi.encodePacked(_userEncryptedKey, verifierEncryptedKey, _userName)\r\n        );\r\n        StoredVerificationData\r\n            memory _storedVerificationData = storedVerificationData[\r\n                _encryptedKey\r\n            ];\r\n        if (\r\n            keccak256(abi.encodePacked(_storedVerificationData.userName)) ==\r\n            keccak256(abi.encodePacked(_userName))\r\n        ) {\r\n            delete storedVerificationData[_encryptedKey];\r\n            emit VerificationDataDeleted(_userName);\r\n            return true;\r\n        }\r\n\r\n        emit VerificationErrorMessage(\"User does not exist\");\r\n        return false;\r\n    }\r\n\r\n    /**\r\n     * @dev This function is used to change the encrypted key or the userName of the user\r\n     * @param _userEncryptedKey Encrypted key of the user\r\n     * @param _newUserEncryptedKey New encrypted key of the user\r\n     * @param _userName User name of the user\r\n     * @return bool Returns true if the data is updated successfully\r\n     */\r\n    function changeUserEncryptionKey(\r\n        string memory _userEncryptedKey,\r\n        string memory _newUserEncryptedKey,\r\n        string memory _userName\r\n    ) public onlyVerifier returns (bool) {\r\n        string memory _encryptedKey = string(\r\n            abi.encodePacked(_userEncryptedKey, verifierEncryptedKey, _userName)\r\n        );\r\n        StoredVerificationData\r\n            memory _storedVerificationData = storedVerificationData[\r\n                _encryptedKey\r\n            ];\r\n\r\n        // If user has updated the data more than 5 times or the data is updated within 1 day\r\n        if (\r\n            _storedVerificationData.changeCount > 5 ||\r\n            _storedVerificationData.updatedAt + 1 days > block.timestamp\r\n        ) {\r\n            emit VerificationErrorMessage(\r\n                \"User has updated the data more than 5 times or the data is updated within 1 day\"\r\n            );\r\n            return false;\r\n        }\r\n\r\n        if (\r\n            keccak256(abi.encodePacked(_storedVerificationData.userName)) ==\r\n            keccak256(abi.encodePacked(_userName))\r\n        ) {\r\n            bool _isUserExists = verifyUserIdentity(\r\n                _userEncryptedKey,\r\n                _userName,\r\n                _storedVerificationData.mutableDataHash,\r\n                _storedVerificationData.immutableDataHash\r\n            );\r\n            if (!_isUserExists) {\r\n                emit VerificationErrorMessage(\"User does not exist\");\r\n                return false;\r\n            }\r\n\r\n            bool _isDeleted = deleteVerificationData(\r\n                _userEncryptedKey,\r\n                _userName\r\n            );\r\n            if (!_isDeleted) {\r\n                emit VerificationErrorMessage(\r\n                    \"User data is not deleted successfully\"\r\n                );\r\n                return false;\r\n            }\r\n\r\n            bool _isStored = storeVerificationData(\r\n                _userName,\r\n                _storedVerificationData.mutableDataHash,\r\n                _storedVerificationData.immutableDataHash,\r\n                _newUserEncryptedKey,\r\n                _storedVerificationData.changeCount + 1\r\n            );\r\n            if (!_isStored) {\r\n                emit VerificationErrorMessage(\r\n                    \"User data is not stored successfully\"\r\n                );\r\n                return false;\r\n            }\r\n\r\n            emit VerificationChangeEncryptionKey(\r\n                _newUserEncryptedKey,\r\n                _userEncryptedKey,\r\n                _userName\r\n            );\r\n            return true;\r\n        }\r\n        return false;\r\n    }\r\n\r\n    /**\r\n     * @dev This function is to reduce the count of the changeCount\r\n     * @param _userEncryptedKey Encrypted key of the user\r\n     * @param _userName User name of the user\r\n     * @param _reduceCountTo The count to which the changeCount should be reduced\r\n     * @return bool Returns true if the count is reduced successfully\r\n     */\r\n    function reduceChangeCount(\r\n        string memory _userEncryptedKey,\r\n        string memory _userName,\r\n        uint256 _reduceCountTo\r\n    ) public onlyVerifier returns (bool) {\r\n        string memory _encryptedKey = string(\r\n            abi.encodePacked(_userEncryptedKey, verifierEncryptedKey, _userName)\r\n        );\r\n        StoredVerificationData\r\n            memory _storedVerificationData = storedVerificationData[\r\n                _encryptedKey\r\n            ];\r\n\r\n        if (\r\n            keccak256(abi.encodePacked(_storedVerificationData.userName)) ==\r\n            keccak256(abi.encodePacked(_userName))\r\n        ) {\r\n            storedVerificationData[_encryptedKey] = StoredVerificationData(\r\n                _userName,\r\n                _storedVerificationData.mutableDataHash,\r\n                _storedVerificationData.immutableDataHash,\r\n                block.timestamp,\r\n                _reduceCountTo\r\n            );\r\n\r\n            emit VerificationChangeCountReduced(_userName, _reduceCountTo);\r\n            return true;\r\n        }\r\n        emit VerificationErrorMessage(\"User does not exist\");\r\n        return false;\r\n    }\r\n}\r\n",
  "sourcePath": "C:\\Users\\rishi\\OneDrive\\Desktop\\DACH project\\BTP\\Blockchain\\contracts\\BlockStorage.sol",
  "compiler": {
    "name": "solc",
    "version": "0.8.20+commit.a1b79de6.Emscripten.clang"
  },
  "schemaVersion": "3.4.14",
  "updatedAt": "2025-04-15T15:06:46.578Z",
  "devdoc": {
    "kind": "dev",
    "methods": {
      "changeUserEncryptionKey(string,string,string)": {
        "details": "This function is used to change the encrypted key or the userName of the user",
        "params": {
          "_newUserEncryptedKey": "New encrypted key of the user",
          "_userEncryptedKey": "Encrypted key of the user",
          "_userName": "User name of the user"
        },
        "returns": {
          "_0": "bool Returns true if the data is updated successfully"
        }
      },
      "constructor": {
        "details": "This function intializes the verifier address",
        "params": {
          "_verifierEncryptedKey": "Encrypted key of the verifier"
        }
      },
      "deleteVerificationData(string,string)": {
        "details": "This function is used to delete the verification data of the user",
        "params": {
          "_userEncryptedKey": "Encrypted key of the user",
          "_userName": "User name of the user"
        },
        "returns": {
          "_0": "bool Returns true if the data is deleted successfully"
        }
      },
      "reduceChangeCount(string,string,uint256)": {
        "details": "This function is to reduce the count of the changeCount",
        "params": {
          "_reduceCountTo": "The count to which the changeCount should be reduced",
          "_userEncryptedKey": "Encrypted key of the user",
          "_userName": "User name of the user"
        },
        "returns": {
          "_0": "bool Returns true if the count is reduced successfully"
        }
      },
      "storeVerificationData(string,string,string,string)": {
        "details": "This function is used to store the verification data of the user",
        "params": {
          "_immutableDataHash": "Hash of the immutable data",
          "_mutableDataHash": "Chameleon hash of the mutable data",
          "_userEncryptedKey": "Encrypted key of the user",
          "_userName": "User name of the user"
        },
        "returns": {
          "_0": "bool Returns true if the data is stored successfully"
        }
      },
      "storeVerificationData(string,string,string,string,uint256)": {
        "details": "This function is used to store the verification data of the user overloaded with _changeCount",
        "params": {
          "_changeCount": "Number of times the data is modified",
          "_immutableDataHash": "Hash of the immutable data",
          "_mutableDataHash": "Chameleon hash of the mutable data",
          "_userEncryptedKey": "Encrypted key of the user",
          "_userName": "User name of the user"
        },
        "returns": {
          "_0": "bool Returns true if the data is stored successfully"
        }
      },
      "verifyUserIdentity(string,string,string,string)": {
        "details": "This function is used to verify the user",
        "params": {
          "_immutableDataHash": "Hash of the immutable data",
          "_mutableDataHash": "Chameleon hash of the mutable data",
          "_userEncryptedKey": "Encrypted key of the user",
          "_userName": "User name of the user"
        },
        "returns": {
          "_0": "bool Returns true if the user is verified successfully"
        }
      }
    },
    "version": 1
  },
  "userdoc": {
    "kind": "user",
    "methods": {},
    "version": 1
  }
}